:20000000003A0120450E020039FB021039FB021039FB021039FB021039FB021039FB02108C
:1C00200039FB021039FB021039FB021039FB021039FB021039FB021011FB021002
:200040002DE9F04F0446BC4ABA48DFF8F092A57801791668002780469346ADF15C0D284650
:200060000C2808D9DFF8F8A22038332812D9AC3800F03C8338E3DFE810F0650557054105DB
:2000800026050505F004EC04D604C0043703B204AE049104DFE810F07E047A0476046604C7
:2000A0006204D1024C0429049A0270022803280328032803280328030404EA03CD03B303FF
:2000C000420297032202E801280328032803280328032803D201A101890128038603660119
:2000E0007D037003640337011801D20060035C035003BE00400380003D03660045003400CE
:20010000E1788DF82B7031F07F0006D011F07F0F0CBF381C0120C849087053210DF12B03F8
:20012000DAE108F1110332203946012227F046FB08F1120333203946012227F03FFBC94846
:2001400098F811100078012905D04FF400611FF07DFF00F0FABC4FF40061642227F0D0FE93
:2001600000F0F3BC20468DF82C7079B9C41C204627F066FD0546A01C0446083027F060FD6A
:2001800002462146284625F059FC00E012208DF82C0051210BAB9FE1E01C27F051FDE51C0B
:2001A000AE784FF6FF748DF80A600546ADF80850AC4218D0E01EA84215D0A01EA84212D0FD
:2001C00002208DF80C00ADF80E5003A81DF088F9012818BF4FF001090CD1BDF80E00ADF8A2
:2001E0000800012000E038468DF80B0002A81EF0E3FE8146E41EAC4204DC012088F82900EE
:2002000088F82A6023F0B6F88DF82D904F210DF12D0361E1E67820798DF82F002EB95220ED
:200220000DF12F0125F0B2FD04E052200DF12F0123F0E0F84D210DF12F034DE1E1783846BA
:200240005EB13279914205D1F2880DEB4003401CC0B21A813668002EF3D18DF831009DF842
:200260003100012404EB4000C0B205461BF0A2FB5FEA000807D18DF83170492122460DF175
:20028000310300F037BC02469DF8310002F8010B38469DF8311081420ADC652049212A46D7
:2002A000434623F05BFB404622F024FF00F04DBC0DEB400108310B7813700988401CC0B2C1
:2002C00009125170921CE4E7301CE4788DF8327014D03E4601798C420CD1002E04BF05680F
:2002E000CBF8005002D001683160056822F002FF284601E0064600680028EBD11DF058FA59
:200300000DF1320329E0E01C10F8014B27F098FC0146DBF80000224650B13E4603799A4247
:2003200002D1C38899420BD0064600680028F5D101200EE0245D002094640020805D002082
:2003400006B95E460168316022F0D4FE1DF030FA38468DF833000DF133034721BCE0C046B1
:200360003A5A002039460DF12200062207911DF07DF8E01C07A926F0B5FA8DF82200079831
:2003800070B101888DF8231046888DF8256009128DF8241031128DF8261000798DF827002C
:2003A000432106220DF12203A4E364788DF8387049B1012905D002291CBF01208DF8380021
:2003C00004D1022000E004200FF0F6F824F01F04202C40F0BA830EAB7DE0204690F80180C0
:2003E000C01C27F02DFCD9490A7849468E6856B13C4633799A4202D1F388984205D0344630
:200400003668002EF5D101200BE024B9346804B93C468C6001E030682060304622F06AFEB1
:20042000384628F01F088DF83900B8F1200F40F08C830DF139034EE08C5A0020204644789A
:20044000C01C27F0FDFB0146C048007821F0BAF924F01F048DF83A00202C40F076830DF1BD
:200460003A0338E0005A0020E41C204627F0E8FBA41CADF8080014F8010B04218DF810000E
:20048000204626F04CFB0646201D10F8019B10F8018B27F0D5FB044631464A46434602A86D
:2004A00000941EF0B1FC8DF83B009DF810000F280FD1022053468DF81000188831464A467A
:2004C000ADF80800434602A800941EF09DFC8DF83B000DF13B03294601220BE32078264681
:2004E000042806F1030614BF16F8010B02208DF81000304627F0A4FBDB4CADF80800B01C60
:20050000012610F8011B2670027802A820F0ECF88DF83C000FAB27703246EAE20220E41C6A
:200520008DF81000204627F08BFB4E46A11CADF808000C7A706827F004FD7168C4F34008D7
:2005400004F00104B8F1010F0F7204D17268107A40F040001072012C03D1087A40F080000A
:200560000872484602A93422092320F047F90DF13E038DF83E00AEE70226E41C8DF8106042
:20058000204627F05DFBA41CADF80800204627F057FBA278804602A84146144626F05EFC6F
:2005A0008DF846009DF810000F280CD1504600888DF8106041462246ADF8080002A826F048
:2005C0004DFC8DF846000DF1460391E20226E41C8DF81060204627F033FBA41CADF8080018
:2005E00014F8010B8DF84800204627F029FBA41C14F8019B804602A912A8424600944B4635
:20060000019722F089FB8DF847009DF810000F2810D1504600888DF810603E4602A9424659
:20062000ADF808004B46009412A8019622F074FB8DF847000DF147035AE2A946E51CA878B6
:20064000B846FE280BD1E878FF2808D12078082805DB284627F0F4FA294625F09BFC284696
:2006600008A926F0E9FC041C0ED118201BF0A2F95FEA000807D0BDF82000394618224346B2
:2006800027F09CF800B1C82419201BF093F9061C20D05CB9701C2946082226F0B3FD06F139
:2006A00009004146102226F0ADFD04E0701CFF2118221CF0DBFE347065204946192233469D
:2006C00023F04CF93046394619221CF0CFFE304622F010FDB8F1000F00F0378240463946BE
:2006E00018221CF0C3FEDEE502272EE2E41C0421204626F014FA06460421201D26F00FFA7B
:20070000C8F840008DF82A700DF12A03C8F83C60EEE11DF029FA18E2E01C27F091FAE51C9B
:200720000246A81C10F8011B1DF010FD4E210DF12E038DF82E00CFE68DF8307026F0F2FD3F
:200740000CAB4C218DF83000C6E6C0468777002020461DF0CFF9F8E120461FF0F4FAF4E1A4
:20076000E01C27F06DFA6179A2791EF05AFC46210DAB8DF83400AFE6E01C27F061FA6179F1
:20078000A27912F03DFF45210DF135038DF83500A2E6E01C12F0A0FE44210DF136038DF865
:2007A000360099E6E01C27F04BFAE51CA91C0B4608310A46194620F019FB42210DF137036E
:2007C0008DF8370088E60220E41C8DF81000204627F036FA4E46A11CADF808000C7A70682F
:2007E00027F0AFFB706802A9352209230472484620F004F80DF13D038DF83D0078E10220A7
:20080000E41C8DF81000204627F01AFAADF80800A07810AE02A933228DF8400001230096B0
:200820004846019722F078FA0DF13F038DF83F005EE10220E41C8DF81000204627F000FA9D
:20084000ADF80800A0780DF1420602A932228DF84200012300964846019722F05DFA0DF180
:2008600041038DF8410043E1646300200220E41C8DF81000204627F0E3F9ADF80800A0788E
:2008800011AE02A931228DF84400012300964846019722F041FA0DF143038DF8430027E191
:2008A0000220E41C8DF81000204627F0C9F9A41CADF808000421204626F031F94E46221D37
:2008C000014612F8018B7068137826F08FFC02A900F8018B30220370484606231FF08EFFF0
:2008E0000DF145038DF8450002E10126E41C8DF84960601C27F0A4F9814604F10B0027F0A2
:200900009FF9804694F800A0637BA07B23F006FF0093E01C49465246434615F043F80DF1BF
:2009200049038C498DF84900042027F0B9F9F3E50126E41C04218DF84A60204626F0EFF825
:2009400021791FF023FB84498DF84A00022027F0A7F982490DF14A030320E6E720461CF0E3
:20096000D5F8F2E0E41C204627F06AF9A11C0B4608310A46194620F039FA0DF14B038DF8EE
:200980004B00B5E020461BF05EFCDEE020461BF017FCDAE0204610F0D9FED6E0E01C27F0AA
:2009A0004FF94E464FF6FD740F22ADF8084071688DF8102002230412152201F8010B4846F4
:2009C0000C7002A9B7701FF019FF39468DF84C0013ABB1708CE020461AF044F8B5E0E41CC6
:2009E000204627F02DF9A11C0A7A3B4623F048FB0DF14D038DF84D007AE00220E41C8DF81B
:200A00001000204627F01CF9ADF80800A01C27F017F90146112202A826F020FA0DF14E0301
:200A20008DF84E0064E00220E41C8DF81000204627F006F9ADF80800A01C27F001F90146AB
:200A4000102202A826F00AFA0DF14F038DF84F004EE0204610F084FA77E00220E41C8DF86C
:200A60001000204627F0ECF8ADF80800A01C27F0E7F80146052202A826F0F0F914AB8DF84B
:200A8000500035E00220E41C8DF81000204627F0D7F8A41CADF80800204627F0D1F84E46A7
:200AA0007268A1781070726803125370706803230422817002A948461FF0A0FE0DF15103C4
:200AC0008DF8510014E00220E41C8DF81000204627F0B6F8ADF80800A01C27F0B1F80146FA
:200AE000032202A826F0BAF90DF152038DF8520001222946652022F031FF26E00226E41CAD
:200B00008DF81060204627F09BF8ADF80800A01C27F096F80146324602A826F09FF90DF1AD
:200B200053038DF85300E3E7E41C204627F088F8A41C14F8011B227823F024FE15AB8DF8C4
:200B40005400C8E4204618F057FC384617B0BDE8F08FC046F73E020053600200316B0100DC
:200B60002DE9F04F05464FF6FE70ADF15C0DADF85400C448001D0078022810D1288900289D
:200B800007BF302000211020012111F033FC00200DF156018DF85600522022F02BFC6868D1
:200BA000297A08AA13F068FE002800F0AA849DF822000228B4BF012700279DF824000228AB
:200BC000A8BF0027BDF82A10DFF8DCA24FF000084FF6F87088420ED04FF6FE70401F8842CB
:200BE00009D04FF6FE70001F884204D04FF6FE70C01E884200D1474626F0ECFF9DF823102A
:200C0000884240F07E84002F00F07B849AF80400022804D19DF85100002840F07284288D3C
:200C20009DF826606F8EADF84C00ADF82E7056B169689DF821209DF83C30012026F02AFB5D
:200C4000002840F05E849DF82570DFF860B24646002F49D19DF83D00474658BBBDF82A0021
:200C6000034622F0E7F94446022808BF0124002C9DF8224018BF012759460988994208BFA5
:200C800047F0020727B1002C14BF402120210F43184622F0CFF9012808BF47F00107002CB6
:200CA0003BD01298007826F0CDFD012818BF27F0010732E09DF8411041B1FF2906D09DF88B
:200CC0004000119A23F010FD50B126E0A748BDF82A20418F914205D090F84A0004281CD1B1
:200CE00001261AE0222718E0BDF82A10FF2024F09BFC002804BF3C1C082708D09DF82500D5
:200D000047F001042C2740F001008DF8250004F00304012C08BF47F011079AF804009DF800
:200D2000264030F0010005D107F002010E4308BF47F08007DFF8B4C294B961460E787EB190
:200D400007F0220122290BD007F04201422940F0D88312990978062918BF072940F0D1833D
:200D6000F9094FEAA71958D3BDF82A20129948B96046C01C0078800804D30878401E0A2839
:200D80002CD909E00878C01E012827D9001F25D0C01E23D0801E21D0B8F1000F1ED1584625
:200DA0000088904240F0AD830D780520BDF82C408DF8110004A825F035FC002800F0A183EA
:200DC0000269032313271370511C0F704C7022128A70CD7044800AF037F892E35FEA5900AE
:200DE0001BD30878032802D148780D2815D09DF8280038B1BDF82C000E990DF0B9FC0128A4
:200E000000F07B839DF8270038B1BDF82A000D990DF0AEFC012800F06D830BF10E00B5F853
:200E200044100088884209D1CDF80080288DB5F8421095F8462043460BF0E0FD9DF826002A
:200E40004A4C00284BD0288DB5F8421021F0ECFF061C2DD19DF85100B0B994F89000012855
:200E60003DD112980078062802D15FEA590036D2BDF82E104FF6F870C01D884240F0B080F0
:200E80003FE3C046245D0020042025F034FB011C00F037836420087001274F70288D4880FA
:200EA000207820F02BFF2CE3245D00203A5A00209DF82130686819184A7BF1788A4203D048
:200EC000F270404670606868C0180421401C25F026FE7168814200F21483401C70609AF815
:200EE0000400022800F06A8230F0010040F0098394F832008008C0F004839DF8510058B19F
:200F0000BDF82C0026F029F9002800F0FA826968487800F0DF0048709DF8320038B169688B
:200F20008879401E8871C0B28DF8320008B907F07F07380926D39DF82500F9084FF48058E2
:200F400016D279091CD3811011F0070F01F0070604D0072E1CBF761EF6B20EB907F07F072E
:200F600000F0E30040EA8600C0B207E0005A002020F01C00C11021F0030108438DF8250014
:200F80006968087294F84A00042800F0DD81092800F0DA8117F0610F40F0E9809DF8220073
:200FA000012811D112980078052800F0D98003280AD1BDF82A0026F0D0F828B1298D08A88C
:200FC00015AA002301F0BCFB9DF8320080B99DF82200012804D112980078032800F0918282
:200FE00008A829461FF0DEFF8BE2C0462F5A002025F0FEFD002840F084829DF83D00002862
:201000006DD19DF82400BDF82A10FC100028ADF854102ED13A0930D29DF82220012A28D06F
:20102000084600211CF036FF002620B14079012816D0022814D0BDF85400B5F8441021F018
:20104000F3FE28B1807825F089FA08B1082807DBBDF82C0026F081F818B104208DF8240065
:201060000126BDF82A10002E08BF022272D09DF82400620838BF002300D340230DF13D024F
:201080001CF042FF30B16968087848F0200800F03F0008709DF83D0040B1BDF82A1010A860
:2010A00021F0A8FF48F04008ADF854009DF82200012806D0BDF82A00BDF82C10002219F04E
:2010C00071FA60082CBF40220022BDF82C10BDF82A0016F061FC08B148F0200833E09DF8DA
:2010E00040009DF84110119A23F0FEFA00282ED09DF8410038B9BDF82A00ADF8540026F039
:20110000C2FE00BB1DE011999DF8286001EB400030F8020C002EADF854000CBF08201020E4
:201120009DF827600EB10830C0B29DF82560002106B1012140186968401CC2B2505C401E13
:20114000505448F0400824F0F3FF81469AE0BDF82A100B22BDF82C00002321F0DBFBD0E16C
:20116000298D08A815AA002301F0EAFAC9E178084FF0000960D3288D9DF833C0C44E4A46CE
:2011800016901E20F1798C4506D1BDF82C3031888B4201D1B3782BB9401E06F1080602F18B
:2011A0000102EFD11E2A26D096F806B0BBF1000F1ED0B4F84810169824F0FCFA10B1ABF128
:2011C0000104B471BA4833210279FF2A03D00288169B934204D0491E00F12400F4D102E011
:2011E000B079401EB071B0794828A4BF4C46B47127F0600720E024F09BFF81469DF83200DA
:2012000020B9288DBDF82C10884215D0298D08A84A4611F0FFFB58B1380932BFBDF82A0095
:201220004FF6F870C01D48F00408ADF8540003E027F020074FF00009B8094FEAA71410D3E6
:2012400095F8460095F8476095F948308DF81000EA6B8DF8116004A98DF8123008A805F088
:2012600081FE60080ED3298D08A815AA4B4601F067FA5FEA000905D012980078012808BF65
:2012800048F01008BDF854104FF6FE70884208BF4FF000099AF81A00012828D1298D4FF690
:2012A000F870C01D884222D0BDF82A204FF6F870401C90421BDDBDF82C00884217D026F0B3
:2012C000E2FDA0B10179012918BF02290FD101218DF810104088ADF81C0004A820F00AF949
:2012E00028B105A81FF0F6FB08B122F043F837F07F0000F00681B9F1000F00F00281288968
:201300001AF058FB071C00F0FC8069682A8925F079FF002605969DF822008DF81000CDF8FE
:201320000090CDF8048004AC0296BDF8541003942A8D2B7A384615F0E1FF002800F0E180A4
:20134000384621F0D7FEDCE05946BDF82A00098881420AD021F06EFE022806D09DF825008A
:2013600000F00300012840F0CC809DF8220098B112980178042904D19DF83C10022900F0B4
:2013800092800078072804D19DF83C10042900F0868003287ED0B4E095F846008DF8100046
:2013A00095F847708DF8117095F948608DF81260EA6B08A804A905F0D5FDA2E094F84A00E5
:2013C000042818BF092840F09C80B80972D212985FEA5901C0F095800178042903D19DF867
:2013E0003C1002295FD00178072903D19DF83C20042A54D003294DD00C2940F082808678D9
:201400004078002836D18AF801600AF101025120012126F09FFC9AF803303B480127002B25
:2014200007700CBF4FF47A754EF66025374850F823004543207803220221B5FBF2F521F075
:2014400039FE00285DD1700809D29AF80100022857D1207802212A4626F04FFD51E04FF4C6
:201460008040294619F0E2FD4FF48040394610F0C1FF46E0E18F012023F06AF99AF8040050
:2014800002283ED1207801211EF0E0FD39E0C046441C002008A8002113F094FF31E008A8A7
:2014A0001CF05AF82DE0002008A90CF033FC28E0C428002095F8460095F847709DF8324093
:2014C0008DF8100095F948608DF81170012C8DF812607FF46DAF288DBDF82C1088427FF4A5
:2014E00067AFBDF82A0021F0A5FD022808BF8DF832805DE7BDF82A0001E0BDF82C0020F027
:20150000A1FA17B0BDE8F08F105B0020789802002DE9F04FC44DC64CDFF81893C74E8846CB
:201520005FEA1840ADF11C0D80F0CA822F79DFF808A35FEA580080F04982DFF8F0B238468A
:2015400030F0010040F092805FEA980059D25FEA981044D25FEAD830C0F0888001200221C8
:2015600024F038FBC5B20DB3E8001AF023FA071C1DD082464FF001095C4633262079012800
:2015800018BF02280DD18DF804906088ADF8100001A81FF0AFFF20B102A9504626F0D1FC5B
:2015A0008246761E04F12404E8D100E0002797B175B10F204FF6FC768DF80C001F24ADF825
:2015C000046001A92A463B46C348009417F00AFC384621F08FFD88F4804000F03DBC607A46
:2015E00038B92078062802D1072025F077FE25F049F9207A10211EF091FF88F0200000F068
:201600002BBC607AE8B92178207A082917D125F0FFFA092025F062FEBF480078052806D0EE
:20162000072809D10720012106F03AF804E0012024F0C0FB1DF062FE25F024F913E0102199
:201640000FE026F0C1FAEF2803DB002024F0B2FB09E026F0B9FA1030C0B226F0C7FA207A1F
:2016600001211EF05BFF88F00200F5E320785FEA983180F08081C848C84B0668B3F9000036
:201680005FEA581180F04A815FEA181028BF88F0080080F0E1835FEA582080F0D1805FEAE6
:2016A000D80080F0B78037F001001CD15FEAD81019D36069A0B118F0EFFD6069076860696A
:2016C00021F018FD67615FB1FA8802E0F888801AF8803F68002FF9D1207A402126F010FC59
:2016E00088F04000B8E35FEA182064D25FEA98205CD2C14C5FEA18302CD25FEAD82027D3DA
:2017000014201AF057F9071C1FD0002524342E46207A012812D100970420294632461423B9
:2017200022F056FB50B9206838606068294614223B467860042023F043F926726D1C0C3483
:20174000C82DE5DB384621F0D5FC88F4806083E3002081E318201AF02DF9071C23D000258B
:201760002E46207A012812D10097062029463246182322F02DFB50B92068386160682946D5
:2017800018223B467861062023F01AF926726D1C0C34032DE5DB3846314618221BF066FE7A
:2017A000384621F0A7FC88F4006055E31AF05EFF88F4007050E31DF0A1FD207805281DD1FF
:2017C000207A04211EF042FC207A04211EF0C8F8062025F083FD287930F0010007D148468E
:2017E000007800F00700022801D026F0CDF821F0C1FD1AF03BFF1FF0BDFF01E021F0BAFD1D
:20180000012023F0EDFB0320012105F049FF88F0800021E3FF20032122F0D6FD26F0ECF90B
:20182000A94901200860FEE7245D0020C42800205C5C002038760020005A002034760020B1
:20184000524692F84A00082818BF042841D124322120742126F07EFAC34E287971683288D8
:201860000024B146A24239DC30F0010029D1FF255C46002694F8210080281ED16788ADF875
:20188000067023798DF80830A1798DF80A1062798DF809202088ADF80400E77984F8215099
:2018A000237D8DF80B70A7698DF80C3031461022032001AB049723F083F8761C2434332ECB
:2018C000D8DBBA48006800B180470020022122F07BFD88F48070BFE2805D0020A30003EB0B
:2018E000C403CF5C37F07F0C13D017F07F07CF540B4405D101A8FF210C221BF0B7FD01AB2A
:20190000012021460C2223F05BF82879D9F804103288641CA4B2A5E75E5F00203746BB4EA6
:20192000B0F1FF3F02D1BA480078B0805FB1786803781BB1406800781CF02AFD3F68002FEB
:20194000F5D1B6F90400B0F1FF3F02D0C0B21CF01FFD26F045F9208425F00CFC687C0128A1
:2019600006D1544620784FF40061642226F0C8FA88F0100070E20C2812D00C2025F0AEFC81
:201980002078012803D0022818BF0C2801D100206071EA6B12E0C046B86300203C5E002079
:2019A000022025F09BFC2078012818BF022804D101206071002024F045FF2A6C207A4FF4E5
:2019C000005126F09DFA88F4005045E2012025F085FC314667780A79122002F0070612F053
:2019E000070F12D1022F09D0012F0ED1082025F075FC25F0C9FF08E0F83C0020082025F0D1
:201A00006DFC0020014614F0B3F9012E18BF022E4CD147B3032F26D0012F47D1012E0BD07F
:201A20000A2025F05BFC207A2A6C4FF4005126F067FA19F0EDFE39E00A2025F04FFC5446A4
:201A400020784FF480611EF001FB502005A924F09DF9BDF81400A4F84800BDF81400002161
:201A60001AF046FE29E025F067FF002818BF032F16D1022025F032FCB749206909781EF0FF
:201A800085FAB6498979090910D280B95F4A5178491CC9B20429517004BFBD49216105E029
:201AA00026F08FF90146012014F062F928B1207A01214FF47A7226F023FA88F00100CBE1A5
:201AC000DFF8D4B2BFE1C0467C0520430646B14A33782778116828791A46521E00F08E81A5
:201AE000521E00F09780183A00F0A781B93A00F0A0812A3A00F084801B1F78D05B1E6FD06F
:201B00005B1E55D05B1E3CD05B1E2FD05B1E40F0978120BB707FDBF8109000BBB9F1000FB8
:201B200006F1050A1BD0BAF1000F18D04F46B81C5146082224F0E6FD18B9FF68002FF6D1C3
:201B400004E038461FF02EFCDBF81090B9F1000F05D19BF800004FF400611EF077FA3046BC
:201B600024F0B0FE6CE1C046CC630020012818BF022840F06581307918F014F921F0FAFBFD
:201B80005EE1002840F05C813079012800F05881022806D0042840F0538130461AF000FA8C
:201BA0004EE1304615F0A4F84AE1C04618620020012840F045817088002840F04181301D96
:201BC00001A923F02DF8012840F03A8126F008F8ADF80C00361D029601A818F00FFB2FE192
:201BE000002840F02D81304614F016FB28E1012818BF022840F02481304609F0DBFF1FE103
:201C0000002900F01D813046884719E1385E002087770020012818BF022840F01181584670
:201C200080795E46072818BF082805D1637A1BB9012105F035FD2778032F00F091800A2FF6
:201C400011D0042F15D00E2F13D00F2F11D00D2F0FD0002F00F0F4801FF08CFD207A10213B
:201C60001EF05CFCECE08248007800F00700012876D0677A6078002F37D10020207307469A
:201C8000F77021F027F870B92879022803D10820012110F0AFFB052025F020FB42F21070E8
:201CA00024F0E0FDCCE0062025F018FB207A4FF400511EF0CBF929488079000906D3E8798C
:201CC00020B94FF40040012110F094FB287930F0010007D12148007900F00700022801D089
:201CE00025F052FE1FF046FDAAE0217B01280BD003281ED1287902281BD1594900260E70EC
:201D000001270320A77113E0491CC8B20428207304DB54480078012809D00AE052480088CE
:201D20004FF6FF7181421CBF0426E672E8D10020607023F015FA22F021FC4C4800780009BF
:201D400002D3E87901287BD16078032878D10820012110F04FFB73E0895F002034760020D3
:201D6000607A002848D1207A10211EF0D7FB20F0B1FF98B92879022803D10820012110F0A3
:201D800039FB052025F0AAFA012021F073FB57E000F8FF07DC5F0020585F00202F792078EA
:201DA00037F001070AD10A2808D13149097801F00701022902D02A4A0821117003280BD1F8
:201DC0001FF0D8FCB079022806D1012023F008F90220012105F064FC062025F07FFA2879D3
:201DE00030F001002CD12248007800F00700022826D025F0C9FD23E00020C6E7022F1FD100
:201E0000012818BF02281BD125F062FF28B117F0F3F9A8B12879022808D025F08FFF0028A3
:201E20000CBF0020012021F03DFF09E01BF0FCFC06E0304605F0D8FD02E0304608F07EF871
:201E4000069824F06FFC207A1EF03AFB002806907FF43CAE88F4004007B0BDE8F08FC046D0
:201E60004A5A0020945F0020485A00203A76002038760020B84A2DE9F04F0846ADF14C0D8F
:201E800011780F90000C80F02D849246B34D0F9A2879920B80F0FC83022813D10F9A52082E
:201EA00010D39AF850000F2807D19AF84A0020B1012802D0002021F0C9FD0F9880F0010097
:201EC00000F030BC0F9A920980F01A83DFF89492DFF8948230F0010740F0B8820F9A520955
:201EE00080F039820F99C90980F0C0819C490F9F0A78390A80F0AB813946490A40D2394635
:201F0000090B28D20F999AF80370490B19D20F99C90BC0F09B824C46A06A70B1E979012935
:201F20000BD18047E06A00B180479AF800004FF480414FF47A7225F0E0FF0F9880F48040A8
:201F4000F0E327B100208AF8030020F03BFE0F9880F48050E6E320F035FE687C01280BD108
:201F6000A97C49B19AF800004FF47A7212FB01F24FF4006125F0C1FF384680F40060D1E302
:201F800025F02EFE4FF6FE7B834500F05C819AF832008008C0F0578100263446304623F0B0
:201FA0002DFE071C19D03879012816D0022814D0F879411CF9719AF88B1081420DDABC72DF
:201FC0007C72388822F07CFF388801A923F0E2FF01A81EF07FFD21F0CDF9761C332EDDDBB3
:201FE000A8F11C0614275D46119436F81C0F85420CD0307B9AF88B40411C8442317305DAF9
:202000001198B0747074308822F05AFF7F1EECD14C46032104F13C0010F8047F0FB17F1EC3
:202020000770491EF8D1B04C332605F1010934F8240F81451FD001208DF804006788ADF852
:20204000107001A81FF056FAA8B1A8F11C05142735F81C0F2188814208D0BDF80610814280
:2020600004D002A8A91C24F0BDFF10B1284625F04BF87F1EECD1761ED9D1119D2C462846A0
:2020800023F0BCFD48B1077937F0040705D1807A24F064FA08B1641CE4B26D1C332DEEDB06
:2020A00024F08AF9119E5FEA00080ED03546284623F096FB28B1807C24F050FA08B1761CA0
:2020C000F6B26D1CEDB2A845F1DCA019C7B2002F4CD0B80019F06EFC1090002808BF119F8F
:2020E00046D0BA00FF211BF0C1F9119E3546B44218DD284623F082FD031C10D0187930F066
:2021000004000CD1987A24F029FA011C07D0009718885A7A109B1AF0D9F8761CF6B26D1C4D
:20212000332DE4DBB8F1000F22D0119C204623F057FB061C0AD0B07C24F010FA011C05D026
:202140000097109B3088727C1AF0C0F8641CE4B2A045EBDC0CE0C046005A0020245D002006
:20216000AE620020105B0020341D0020119810909AF83000002808BF4FF0620805D025F0A6
:20218000B9FAC0F154005FFA80F80320B8F1600F98FBF0FAA8BF4FF01F0ADDF84090ABF1EE
:2021A000020BB8F1000F0EBF119D2025DDF84480BA45A6BF3C1C45F040055446032014FBFF
:2021C00000F0801C8DF8050001A824F02BFA4E46031C26D01869082104F01F02017045EAFF
:2021E00002014170801CA4B12246C01E361F16F8041F00F8031F318809124170B17801F0B5
:20220000070CF178521E01F0070141EA0C118170EDD1A3F802B001209876184608F014FEFE
:2022200000E00120E90906D2641EE4B20CB109EB84093F1BFFB205F040052843B1D01098A4
:2022400008B120F057FF0F9880F480706AE2104306D1A948C178012902D100218170C17074
:202260001FF0DAFC384680F080005BE2A34C1E2600214FF006084FF00409A778002F43D080
:202280007F1EFBB26079A37024F082FE071C3AD06BB9787B022808BF87F80D8033D087F8B1
:2022A0000D803868407BF02120F0ECFA2BE0A3791BB9787B032812D025E023791BB3E0786D
:2022C000401EC3B2E370F3B99AF82500E0702079401EC3B22371787B032814D133B92046D0
:2022E000394620F067FF0EE0A028002087F80D9025F067FD00F00F00401C38819AF80000D8
:2023000020211EF00BF90121761E04F10804B4D19AF80000012910D040211DF097FE95F802
:202320002900012813D1002085F8290095F82A0017F038FD21F01EF809E0402120F0BAFE75
:2023400028B99AF800004021642225F0D6FD0F9880F04000E6E10846102120F0ABFE30B9FC
:202360009AF8000010214FF47A7225F0C6FDBA48DFF8E882417808F24444491ECFB217BB5B
:20238000012141700020052124F01CFB071C1BD006253846052124F015FB0646388978B1C2
:2023A000401E80B2388158B97889C00802D3387B22F06EFD7D733868407BF02120F062FA2D
:2023C000371CE6D100E0477064274FF6FE7600252079A0B1FF2812D0401E2071C0B270B976
:2023E0006079032805D16088218802221DF04EFB6079012803D0268066806571A5717F1E0E
:2024000004F10804E4D108F15A040827207A401E2072C0B230B9C548214622F089FE90B945
:20242000668025707F1E04F10A04EFD1C04AC82112F8080F08B1401E1070491EF8D10F983F
:2024400080F010006EE11FF06DFEE4E74C460F992778890834D20F992289890A12D20F9986
:20246000C90A38BF0020C0F05D81022801D11BF0DBF9BAF8480001211AF03AF90F9880F495
:2024800080604FE1BAF8485004F108015020AAF8482020F0AFFF2689142744466089854288
:2024A00005D0864204D0204624F02EFE00E066817F1E04F11C04F1D10F9880F4007031E12D
:2024C0006FB9BAF83E10012022F042F9287902280DD19AF8000001211DF0B8FD07E001A8B7
:2024E00025F0D5FC25F06AFB01A91EF01FFB0F9880F0020016E1C046E83C0020441C0020D0
:202500000846202120F0D6FD28B9DAF81000002808BF012615D025F0ABFE864909684FF44A
:202520007A774843B0FBF7F1DAF81000002808BF002004D088428CBF4FF0FF30081A4608D4
:2025400065D00020042124F03DFA071C5FD0FF254FF0FF3B06244FF001093846042124F09D
:2025600031FA10903889864204D8801B83B23B8113B149E000203881BB7B012B02D17889A3
:20258000C0083BD3002B36D08DF804508DF805508DF806B03968086AC97F02AA12F06CF9D8
:2025A0004FF00008012808BFC8465FEA08001DD0788A40F08000ADF83600B87B8DF838001B
:2025C0007889000908D3BDF8360040F48070ADF83600387B8DF83A007B6913B1187BADF8DA
:2025E000180001A9002202A804F0BCFC7C73387B1AF04CFC08E087F80D9005E07C73386835
:20260000407BB72120F03EF9109F002FA5D10DF097F89AF800300020012124F0D3F918B153
:20262000184620211DF07AFF0020042124F0CAF9B3B278B152460789147824F0C3F910BB7C
:20264000BB42AEBF0027FF1ABFB2204647B920211DF064FF002010E054770020201B0020F2
:202660007A00202125F04CFC25F002FE314909684FF47A774843B0FBF7F0CAF810000F9878
:2026800080F020004EE00289BA42D8BF171CD4E725F071FC284C0546201D0068074698B1F4
:2026A00057F80C1C9AF8000021B94FF400511DF057F903E04FF400511DF030FF20463946AE
:2026C0000022001D22F030FA284625F0CDFD2FB13846FEF745FA384624F024F80F9880F4D7
:2026E00000501FE008461DF0EBFE071C17D0134920310A78FF2A0FD03C780B46002094420B
:2027000007D0401CC0B2C200D1189A5CFF2AF6D102E0496838468847384624F003F80F986F
:2027200080F4004013B0BDE8F08FC046E72902007C22002090A10200D463002010950200F7
:202740002DE9F04F064693460020ADF13C0DABF80000B06A099303460078884625F072F891
:2027600048B17089044620F065FC022804BFABF80040B36A01D0002009901878C84DDFF8B9
:202780002493401E0A2800F20B84DFE810F02F03B3020C04A0028D0151010904BE008800DE
:2027A00066000B00BD4CE079012840F0F9835B1CB06913F8015B1F7825F096FB002800F025
:2027C000F7830379002B00F0F383032B80F2F0830E2D1CDCDFB9D04907752DB901EB8501A7
:2027E0000A6BC261096B0AE001EB85010B6B9A01A2EB8302C2610A6B9101A1EB8201816133
:20280000012180F8201020F0B5FD002500E001250320B68964788DF8190006A823F002FF63
:20282000071C00F0C58338690C2100F8011B00F8015B04700124BC7724F09CFC786204A908
:20284000304623F0A7FB10B17C7704A838627E80BC76384608F0F8FAAAE35C1C207820F00E
:202860001F0700F01F00012840F09A83641C04A8214625F066FB284604A95D3024F0B2FB3B
:20288000002800F08D83002F40F08A830834A2786178207801EB022121F00AFD88E3688F54
:2028A0007189884240F07C835C1C14F8016B04A8214625F046FB284604A95D3024F092FB83
:2028C00006F01F0726F01F06002800F07183002E40F06E83780019F06DF8011C00F0688368
:2028E00067B184460834384663782278401E04F1020402EB03222CF8022BF5D1009103F0C1
:202900004EFD084620F0F6FB52E35C789A1C34F07F0704F01F0E40F04B83377F03201EFBA3
:2029200000F0801CC1B2B94240F04283002714F01F0F04BF4FF6FE7C614618D0D9789B78DA
:2029400070464D4603EB012C5378117812F802EF01EB03213EF0770340F02A832B888B42AF
:2029600008BF0EF00707521C401EEDD1BFB960464FF6FE72824212D004F06002602A0ED0C3
:202980004D462A88A30907D2E30902D2904203DD0EE3904203DD0BE39142C0F20983B08920
:2029A00025F071FA002836D1B0894FF6FF7122F001FF041C14D121F0E9FF041C00F0F882E0
:2029C00000211C221AF052FDB0894D460E35208028886081AA23A37402222274012161746A
:2029E000207C032805DB0220072F2074BCBF7F1CFFB2677400202073A01C24F081F800287E
:202A000040F0D682307A002800F0D282B169A01C25F097FACCE20021C171017A032905DB14
:202A20000221072F0172BCBF7F1CFFB24772BFE2484671890088884240F0B282307F022892
:202A400040F0AE82AA4CA01D00884FF6FE71814240F0AE82162023F04EFD071C00F0A88233
:202A600001213970B07900280CBF081C02207870B06A4078B872000902D2B08921F08AF99B
:202A8000B169B81C25F05DFA0020F874287839461FF034F9B089E0808AE2C046245D002049
:202AA000005A00203A5A0020708920F0C3FA002840F076825F78B94987B10C2F03F102038D
:202AC00080F276828C463D465A7818786D1E03F1020300EB02202CF8020BF5D148467589C1
:202AE0000488DFF8D892AC4200F0B280B37C002B00F05E823B1C0A974FF0000811D0A74ABE
:202B000038464146921E32F8023F9C4206D0401E01F10101F7D104E0489802000A914FF027
:202B20000108284600211BF0B5F900280B907ED0407901287BD10B98807910F0180F76D0FC
:202B40000B984188384624F031FA10B9B8F1010F6DD109F505794FF6FE704FF000080C9773
:202B6000B6F80CB0CDF820904FF0010A0D90C14611E0B8F1010F08BF4FF0010908D025F0E1
:202B800020F9C0B290FBF8F101FB08F1A0EB01094FF00008C246089D14271C3D35F81C4F8C
:202BA0004FF6FE70A04213D0A34511D00C98214624F0FCF960B96B7C53B1072B08DA08F1AF
:202BC0000100BAF1000F5FFA80F801D1C14521DD7F1EE3D1B34D332735F8244F0D98A042C1
:202BE0001AD0A34518D00C98214624F0DFF998B96B7A8BB1072B0FDA287901280CD00228C7
:202C00000AD008F10100BAF1000F5FFA80F803D1C14501DC0D9407E07F1EDDD1B8F1000F13
:202C200002D0B9F1000FA4D00D980B994880B37C5A4C581EB074F77C00970A9D0195029438
:202C400001220392B189B269708916F0B9FFAFE1B4890C2F80F2AC818846ADF81040BD4841
:202C60008DF812700168CDF8148009B104A8884720461DF0DDFCC82803D14FF6FE701DF086
:202C8000D7FCC82880F2948109EBC00000F26475686808B120F02EFA2FB1780018F08AFEC2
:202CA000686010B984E1002068606C80C2486F70007828706878002800F07A816868002866
:202CC00000F076817A00414624F09CFA70E1307F022840F06581099828B94D467189288863
:202CE000884240F06581099831460BF013F85EE1105B0020B5F84810404620F095F8A846F6
:202D0000074608202FB17D781DB90221397007257D70B16A0A79CC788B794D7891F802A0D8
:202D2000CF7904EB02244A7902EB03296A0928BF1020AA0924BF0830C0B235F0700340F0C8
:202D40003781327F904240F0338105F07005680938BF002006D306A8083125F0F2F825F08E
:202D600010050820A90907D3B16A091804A8083125F0E7F825F020052046514622F08EFBA3
:202D800008280DDA8D4B410001EBC001C9188879B84240F30D818F71002002E0441B002038
:202DA0000420B8F83A10A14219D048B9B189484601222B4610F09AF828B1F9E0201B00202D
:202DC000042840F0F58006A804AE009049463A46534601962046029513F050FDE8E0B189A4
:202DE000484601222B4610F081F8E1E0B5F84810404620F019F84FF00609041C03D06078B2
:202E0000002800F0CD80B06A817847780891C378017900F1050A03EB0120099040461EF0F1
:202E200093FF9AF8001009185FFA81FAB80928BF4FF00E0937F0780040F0B28007F018005B
:202E4000182800F0AD80307F814540F0A9804FF00009CDF800900899B089524643461BF0A4
:202E60008DF8032800F09C80002807F078074DD117F0180F18D195F8310028B1B08941466C
:202E800001223B4610F032F809984FF6FE714A463B4610F02BF8002838D14FF6FF70ABF853
:202EA000000039E0A028002047F00107780928BF47F00207B08939461AF0ECFF90B1817942
:202EC00011F0180F0ED0417901290BD154B14088B5F848101FF0A8FF20B1437813B160787C
:202EE00098425DDCB089414601223B460FF0FEFF60B94FF6FF70347AABF80000002C0CBF4A
:202F00004946B169B089524623F09AFFBBF800104FF6FF70884243D1012000900899B089AB
:202F2000524643461BF02AF8099839461FF0FAFA698F81422ED1099824F0A5FF60B1007983
:202F4000012818BF022807D1099804A923F022F808E0C046A05C002024F00CF9014604A8DE
:202F600024F0EFFF307A012803D1B16906A824F0E8FF06A8009004AF0197B06A407840F05A
:202F8000300002900999089BB0894A4613F076FC48460CE0B06A80F805A023F0C9F806E081
:202FA0004FF00009F4E70999304612F00BFA099009980FB0BDE8F08F3D5D00207A1B002043
:202FC0002DE9F04F0446B14DB1480021ADF14C0D001D2E680768A0780C910146102910DC00
:202FE000102900F0AC80002900F0A682491E012940F2F581891E00F04D81491E00F01C81A9
:203000003CE3113966D0491E1ED0491E03D0491E00F03A8332E3207967798DF81000E078F3
:203020008DF8117023F028FF002808BF022005D00C3004A9022224F0E5F80C988DF8200023
:20304000132108AB012233E3204634460421C61C304623F064FD0C9F0121002C35D0A26877
:20306000904203D02468002CF9D12EE06CB3361D304624F0E5FDB778804657B928688442E2
:2030800018BF251C20682860204620F033F80C991BE0B81C18F08EFC051C04BF10210C9FA1
:2030A00013D00C9828706F7061683A46A81C414424F0A8F8BE1C642012212B46F2B220F016
:2030C0004DFC284620F016F8F5E23170334612217770ECE220460126C41C8DF82160204669
:2030E00024F0AEFD6F68A3780FB3B3B938680090686818300190787E0290B87E0390396925
:20310000BA8AFB8A381D09F077FA8DF8210068681FF0F0FF0C9868600CE03968E41C1A465A
:2031200009180846214624F06DF80C9800E010208DF82100112132460DF12103B8E2254615
:20314000B94C89462D1DA07815F8011C002936D0491E10D0491E02D0481E5FD05CE02878EF
:2031600024F072FC002861D041680978E170007820710C984CE02D78002857D1E1200DF12C
:20318000230122F003FE9DF82300854242D00126A670304624F008FB0C9809A98DF824009E
:2031A000522020F027F928461FF0E0F990B3657020783146642224F0A3FEBA2028E00028AB
:2031C00034D1E1200DF1250122F0E0FDCB4E9DF825103C36307888421CD0DDF83080012578
:2031E0005220A5700DF126018DF8268020F002F9E120314620F0FEF852200DF126018DF853
:20320000265020F0F7F8404624F0CEFA4046A07002460CE00C9A0AE00220F9E7284624F0F9
:203220000FFD0C9AA97824F0EFFD00B901228DF822200DF122031FE210218DF82710E178AE
:203240008046DFB17A681278384691420ED03F683FB17A681278914205D038463F68002F7E
:20326000F7D102200BE03968016002E0B1493868486038461FF03EFF0C9800E001208DF85F
:2032800027000DF12703CDF83480A5E0EC630020B463002001218DF828100C990D900C22EC
:2032A00004A81AF0E3F825460224ED1C8DF81840284624F0C5FCAF1CADF8100017F8010B28
:2032C0008DF8190017F8010B24F0BEFB8146384624F0B6FCBD1C0E9015F8010B15F801AB14
:2032E00015F8018B2E788DF82900700018F062FB0F9000286CD06D1C4EB1834637462846CD
:2033000024F09EFCAD1C7F1E2BF8020BF7D1B9F1000F57D0CDF8409015F8013BDDF83C9042
:203320003746AB460C2FBDF8105011934ADA28461DF07EF9C82815D14FF6FE701DF078F90E
:20334000C8280FD1C34890F86437012100F26C7C0C981CF8082B9342C4BF131C081C491C78
:20336000C829F6DBC74C4FF6FE7604EBC0046068668018B11FF0BEFE0C9860606FB17E00C8
:20338000304618F017FB6060002808BF102419D060684946324623F035FFC948658000784D
:2033A00067700DF1290620701099CDF800B00E9A0196119BCDF808A004A8CDF80C8009F00D
:2033C0001BF904460F988DF828401FF093FE02E010208DF828000AAB0D9881464CE194F8C2
:2033E00001B001210228814604F103048DF82B101CD114F8010B03288DF8180005D0204645
:2034000024F01EFCADF8100004E004A82146082223F0F8FE083414F8010B8DF81900204647
:2034200024F00EFCA41C0FE0BC63002002208DF81800204624F004FCA41CADF8100014F8C6
:20344000010B8DF819000C98ADF81A0014F8010B24F0FAFA8046204624F0F2FBA41C0D90B5
:20346000B9F1020F14F8010B14F801AB14F8017B8DF82A001CBF14F8016B06F10A0006D15F
:20348000204624F0DDFBA41C064606F11400B8F1000F80B242D0FA2832DD6C68002C3DD188
:2034A00006F11C0018F086FA04466C6024B30C9804F11C0504A98DF82B000C222560201D7D
:2034C00023F0A0FEC4F810800D98A082E6829DF82A50257684F819A0A7760F23E376794C74
:2034E000207808214FF47A7224F00AFDC8B1207808211DF013F814E0102010E0005A0020E1
:2035000000940DF12A000D9A019041463346CDF808A004A8039709F06FF800E002208DF81D
:203520002B002BF01F0BBBF1200F40F0C4800DF12B03A1E0B46300204FF0100A89468DF83B
:203540002CA0504618F036FA071C00F094805D48E41C7860207824F077FA00287CD1207803
:203560000C9E3870B04687F80C80142018F022FA0028B8606BD014F8011B01706278217819
:20358000A61C01EB0221418031787278B41C01EB02218180817914F8022B01F0F00102F01F
:2035A0000F020A438271B96814F8010BC871BD68EB79464673B1580018F0FCF9A860B86892
:2035C0008568002D08BF564604D03046BA68D179814231DC2078B9680873BD682B7B73B1C5
:2035E000580018F0E7F92861BD682B69002B08BF564606D0641C4046297B814210DC102E4E
:203600002BD1A86810B11FF075FDBD68287B18B128691FF06FFDBD6828461FF06BFD1CE0B9
:20362000627821782B6901EB022123F81010BD68A41C421CD0B2DFE7637821789268451CDF
:20364000A41C01EB032122F81010E8B2BEE7564603E0C046201B0020B8268DF82C603EB95B
:2036600038461FF07BFB8DF82C009DF82C0010B138461FF03FFD0BAB4946E3E402200C9081
:2036800019E0C046842200200C988DF810008DF81100E07804A922F050FF9DF811701421E5
:2036A0009DF810008DF81D7007AB8DF81C000222642020F053F90C9813B0BDE8F08FC0466B
:2036C0003D5D0020877700202DE9F04FADF13C0DC04E0B90BE480C91002107790E919FB1FA
:2036E00037F0010508D0022F12D1307900F0F80141F00201304605E03046017901F0F801B6
:2037000041F00101017103E0307900F0F8003071341D2078402537F00101757100F007009B
:20372000207005D18E20B07137B940F0010002E0022F01D18020B0710E9AE270227150258B
:203740007572A020A071E271A072E272B089099240F43050B0813274B1B1022F1CD10120F8
:203760001BF0F4FB28B9306820F00F0040F0020004E0306820F00F0040F001006FF30F1038
:2037800048F22021014306E0316893484CF21017084047EA00013160914B9049B0791F782B
:2037A0000A9381F8320067B90E981CF09FFD8B4890F83200000911D30E9808A98DF82000DD
:2037C00009E0084690F83200000907D301200DF121018DF8210052201FF00CFE22F04CFC49
:2037E000800838BF0E9803D30E9821F0F9FB01200028DFF818A30D9040F0D8800FF042FDE5
:203800005FEA000B40F0C380744ADDF83880212074212432174624F097FA002859D12120D5
:20382000414674223B4623F0C9FF002851D16B48408F4FF6FE7181424BD0684890F84A002F
:203840004FF00108082806D0042804D012F0F8FBDDF838803DE0C14642200DF122018DF86C
:2038600022901FF0C7FD07F12F0143201FF0C2FD07F12C0147201FF0BDFD07F11C014A2096
:203880001FF0B8FD07F11A014B201FF0B3FD07F1240128461FF0AEFD07F1160153201FF051
:2038A000A9FD07F12D0154201FF0A4FD07F11801E1201FF09FFD494890F83200000938BF10
:2038C000DDF8389052200DF122018DF822901FF091FD0E9D17E0DAF804100E9AA80000EB21
:2038E000C5000C234018814600902946012020F06FFA30B999F80000FF2804BF099889F896
:2039000000006D1CADB23248BAF800100079A942E1DC30F0010001D111F054FEA048001D17
:20392000006800B180471EF065FBB8F1000F1BD024F056F90A99088418B9207800F0F800B3
:20394000207023480079022818BF012104D1234A0998032182F84A000A98393741703946C3
:20396000183024F0EEFA01E04FF0090B8B4D0999174FA81C0180387918B91FF0ABF93846F7
:203980000079BBF1000FA94605D10E9904E01048DFF80892007901210D9110490A9D91F818
:2039A0003C20012707FA02F129619DE00FF06AFC12F046FB094A21207421243224F0CAF98A
:2039C00002A8FF210C2219F051FD0E9D574611E0245D0020347600200000FFFF005A00207C
:2039E0005C5C0020294601200C2202AB20F0E8FF6D1CADB23888A842F4DCC148007930F089
:203A000001000ED102A8FF21102219F02FFD0E9D03202946102202AB20F0D2FF6D1C332DAF
:203A2000F6DB5F48006800B180470998ADF80800162017F0BFFF071C10D0FF21162219F081
:203A400015FD384602A9022223F0DCFB422016213A4624F07FF938461FF04CFB09980E995C
:203A60000622ADF8100002A819F000FD142017F0A1FF5FEA00081BD0A4480C300768A7B1B3
:203A800003270225A8B202A90622404423F0BAFBAD1D7F1EF6D104A94046022223F0B2FB17
:203AA0004C201421424624F055F940461FF022FB182017F07FFF071C10D00E9D18222946B5
:203AC00019F0D4FC0620294618223B4620F078FF6D1C032DF6DB38461FF00CFB1EF0B2FD5B
:203AE0008748DFF8B89000790D99884D012967D1B44F2437F0B101280AD002280ED12078DF
:203B000000F0F80040F0020007E0C046CC630020207800F0F80040F001002070A24822F012
:203B20002EFD002808BF099809D00A9A04210320D17204E02178022001F0F8012170DDF8D3
:203B4000288088F8010024F03CF90B996C4C00F07F000818643080B20E90A06B0221C8F8B6
:203B60001000FF2020F030FC96494FF6FE70431C48870C46E0870998A1F8483020F018FD8A
:203B80005F480079012810D10C9801280AD0099902A8082219F06AFC02A804E0C06200209F
:203BA0001062002009981FF005FC212074213A4624F0D0F80998022120F006FC50480079A9
:203BC000DDF834A018B9B08940F00100B081EF6887B9122017F0EEFE0646002EEE606ED00E
:203BE0004FF6FE70B61F0327411C26F8060F7F1E7180FAD1BAF1000F61D1099906AB4C207F
:203C0000022223F0DBFD002852D1BDF8180000284ED004284CDA182017F0CCFE03274FF073
:203C200002084FF6FE7B0646099CEB681FFA88F14C2006221B1923F0C1FD78BBE868015B6E
:203C40008B452BD056B300962018099A41881823062020F0BDF83069EA6800F2E9333361A3
:203C60001019418805F11002880000EBC100E9681350081973694188880000EBC1008018D0
:203C8000E96843600819418818223346062020F097FE09993046182219F0E8FB7F1E04F1F8
:203CA000060408F10608C0D116B130461FF022FA134B0999712008224C3323F07FFD1048D9
:203CC0000779381C06D123F055FA23F03DFE0C48077917B123F030FE18B10120A870099E03
:203CE000EE703248324EC9F80C00C9F810607FB137F0010006D121F01DFF2F480BE0C046AA
:203D0000245D002021F016FF2C4804E0E83C002021F010FF2A482749BAF1000F086019D033
:203D2000284890F86500A8B92748007990B9DDF82480622102AA40461AF0CEF902A8414664
:203D400021F0FBFA404616F02DF802A81022414619F08CFB0A98406950B10A9C1434076810
:203D600020681FF0C7F90A99384600284861F6D10A9A099F01200146107002F10A049772F5
:203D800085200A3223F0E0FF28B9852039460122234623F013FD0E9822F054FD22F0DAF9AE
:203DA00050460FB0BDE8F08FC85F0020C1050100F9790200A4610020858C0100E36A020082
:203DC0008D980100005A0020245D00202DE9F04FAB4C04F12C000768ADF14C0D17B10020E7
:203DE00087F83D00DFF894824FF0000B17F140060BD03F6DA04DEE612FB940460068D0F821
:203E00004C058047EE697068E86024F0B4F81290082014F07BFA1AF099FD454610B17FA005
:203E200024F01EFA1CF0B6FF0CA823F0F5FD042658460CA98DF8306023F0F6FD206423F0AD
:203E4000AFFB04A823F050FD584604A98DF8106023F052FDA06323F0ADFB08A823F054FD38
:203E6000584608A98DF8206023F056FDA16BE06319B972A024F0F4F9E06B10B974A024F018
:203E8000EFF9206C10B977A024F0EAF92868D0F8E00380472868D0F8180280472868D0F844
:203EA000F0028047D8F800005E460725A0300168775827B138468047D8F80000A0306D1E59
:203EC00006F10406F3D1D0F8B8028047EB2023F08DFEE06A5F4670B16846FF21082219F01A
:203EE000C5FAE06A6946082222F00CFC04F12C05012818BF2F68634805C8E946391C89E89C
:203F000005001ED1082017F055FD061C54D0B51E032723F056FF05F8020F7F1E4FEA20205D
:203F20006870F6D13020F82705F8020F3146082204F14800F77123F065F930461FF0DAF857
:203F400004E004F14800082223F05CF9012008216A4623F0F9FE04F14805002818BF092838
:203F600026D122F089F880081DD26846FF21082219F07CFA02AEFF210822304619F076FAE0
:203F8000012059460822334623F018FC80B930466946082222F0B6FB28B92846314608225C
:203FA00023F030F904E0012008212A4623F0D2FEE22029461FF01EFA22F05EF8400834BF09
:203FC0005E460126D04D5520012105F1320223F0BBFE18B916B1584621F002F8CB4DE22011
:203FE00005F1440121F0D2FE30461CF07FF968465946102219F03AFA287930F0010046D116
:20400000C34F69461022384622F07CFB00283BD168463946102223F0F5F838E052616E6476
:204020006F6D5F736565644175746F6D617469632829206661696C656400C0464145534305
:20404000434D206F70656E206661696C656400C0414553454342206F70656E206661696C88
:20406000656400C054524E47206F70656E206661696C656400C046C0C058002014010020F2
:20408000F02F0020949B0200684620F079FF622010216A4623F058FE28B926B16220102143
:2040A0006A4623F057FE68465946102219F0DEF9304613F061FA30461FF09AFD304613F020
:2040C0003BFD2879A8B9684620F05AFF40F2011010216A4623F038FE30B92EB140F2011017
:2040E00010216A4623F036FE68465946102219F0BDF91EB15846012120F066F9282017F00D
:2041000059FC0028606400F02081206B616B221D1BF0C0F8C449087010211CF0FFF9616CED
:20412000201D0860206B616B04F108021BF0B2F8D8F80010D1F84C138847616C04F108002E
:204140004860206B616B04F10C021BF0A3F80DF031FE616C04F10C008860206B616B04F189
:2041600010021BF097F8B14F7870D4486E8E87F802B005F15401BE8023F0E3FE95F8220036
:20418000616C04F1100305F14C06387004F11402CB60206B616BFE601BF07CF8A449A54E10
:2041A0000870A54ABE60A54B7A62606CBB6204F1140604F11802616B0661206B11921BF03B
:2041C00069F89F4E30724FF0020A86F828A04FF6FE70308422F0CEFF9A48B849D946C0F85E
:2041E0000090B74823F0ADFE9748FF210E2219F03DF99648974B8360974AC26094494160E0
:2042000080F800B0954B0361954A426197493961944B8361944AC261954B7B61954ABA61BC
:204220009748954B954AFB6197491061954FD16006F1340097601EF091FD1EF029FDA04844
:2042400009272C307F1E40F8049BFBD1307A48F201011DF0B7FA307A4FF400411DF0B2FA07
:20426000307A48F221011DF0ADFA307A48F222011DF0A8FA307A20211DF0A4FA307A21214C
:204280001DF0A0FA307A22211DF09CFA606C11994161206B616B04F11C021AF0FBFF7B4E98
:2042A00048F2150130701DF08DFA307838211DF089FA784F784BF760754886F828A0616C38
:2042C000336104F1200270614FF6FE7704F11C03206B8B61616B37841AF0DCFF6F49636C2A
:2042E00004F120026F4F08706D4EDA61206B616B376004F1240632461AF0CCFF02492F792E
:20430000087067B906E0C046585F0020245D00205898020091F833700FB185F806A048F266
:2043200002011DF04FFA606C616B0662206B04F128021AF0AFFF20705B49087023F038FCCF
:204340004870616C04F1280048624FF6FF7059460EF050F8012040F6B83116F067FE0820A5
:204360004FF4DC7116F062FE1020642116F05EFE202016F05BFE4FF480504FF47A7116F04A
:2043800055FE012001460EF035F8484A3520282123F0E0FC0FF070FB129823F065FF22F07B
:2043A000BFFD21F057FDD8F80000D0F8D40090F843001BF0DBF8D8F80000D0F85824594614
:2043C0000120904721F01EFD3948D8F8047080F800B0F868007830B9D8F80000D0F85824F7
:2043E00058460146904715F057F93248324A07215B4621F067FC17F0C5F91FF035FC102044
:2044000010A98DF840005A201EF0F4FFD8F80000D0F830248DF841B00DF14101E02090472A
:2044200013B0BDE8F08FC04687770020945F00207C630020B1330100E99701002979020055
:204440005C5C0020445E0020221B0020FC610020CDD300005556020075EE010037440200BA
:20446000255C02002D2A02004D5C020085810100815C0100E9600200E1B20000AC620020C4
:204480008D5B010085C901009D4C0100D05F0020494002004D5502003D5D0200BC630020A1
:2044A000C8630020B5320200AC6300205C5B00208E7700207C610020FB7F0200C85F0020DD
:2044C000745C00202DE9F04FDFF880B2DBF80000D0F8D41091F883A0B8300168DFF8708249
:2044E0000F78ADF1240D2FB941460F7817B1D0F89404804720F016FA81274646C34937707A
:20450000BAF1020F086002D1C149FF200870C14C0020C149A08106460891BAF1010F079173
:2045200027780E702069A7701AD0007ADBF80060801E85B2D6F80001C089A842C0F2D38249
:20454000216A0831096804F1180004F11902016004210692A67EE37E607E5278A1812DE08F
:20456000467A007A06F0070100EB01218DB2710938BF281F04D306F0070100EB0120801E80
:2045800036F07F0685B240F0AE82DBF80000D0F80001C089A842C0F2A682216A04F1180098
:2045A00008310A680979026004F11902017105210692237FA181E67EA07E927800EB0620CB
:2045C00060812371DBF80030C2F30119B8331A681278ED1EADB2002A08BFB9F1020F00F097
:2045E0008282B9F1020F00F37E82DFF8888262B110F0070F00F0778242461278862A04D17F
:2046000000F00702022A40F06E82021302F00202022A4EDA667800F00700022842D1002EB6
:2046200040D1D86990F88300022838D0226A52180832127805A8491C02708FB2A78123F031
:204640009AFC054642461078862825D1DBF80000403001680A6832B9D0F80C058047DBF849
:204660000000006C02689DF9140023F0C4FC5077DBF80000016C096800228A77006C9DF94A
:2046800014100068C177284623F0EEFD608900F010001CF005FF02E0284623F0E5FD22F09A
:2046A00093FC22E242461078862803D11FF090FDA77866788FB186B9012F00F0148260891E
:2046C000022F03D110F0070F40F00D82032F05D100F00701032901D005E26089010980F0B9
:2046E0000282011301F00201022902DA810A80F0FA81BAF1010F19BF06994978069989781E
:20470000C1F381088E11B8F1010F00F0EC81012E00F0E981BA49B9F1020F09D08A5D11F897
:2047200008108918CFB2CEB1C10917D3BF1E0BE072184144127909798918CFB2C10909D261
:2047400058EA06030AD0BF1CFFB207E0140100208D77002058EA060308BF0227C0F300205A
:20476000391A60718D42C0F2BE81DBF80030ED1B29182181D3F850122D187435A8B2884723
:2047800000286578606100F0AE810021742218F06DFE0020E07061894FF0FF091DB9079AF2
:2047A00001F020001070079805784FF0000C002D48D06579002D45D101F00700032809D09F
:2047C00001283FD1DBF80000D0F8D40090F88250002D37D0BAF1010F20D0DBF80400406978
:2047E00005781DB122F004FFFE280CD0DBF80000D0F84C02804708BBDBF80000D0F8440203
:204800008047B8B11AE00420E0701AE0707700201D620020E47300208F770020DBF80000EA
:20482000D0F84C02804748B9DBF80000D0F84402804718B9618994F803C003E00420E07091
:20484000618984466569238905F1740205F17400AA65BAF1010F6860AA4A2B812089A9814F
:204860001378A5F85C0007D0069A5078C0F30111107806E092770020069A9078C0F30111AC
:20488000507800F0780008434CEA00002874002B85F80E900CBF2079002085F8306085F877
:2048A0003A8085F84900A089002FA0EB030086B2A68100F01581DBF80000E780D0F8D400D7
:2048C000216A90F883803A4689190831684615F01BFEBF19B8B2B8F1010FA08107BF06981B
:2048E000807806984078C0F301192846077CB8F1010F07F0400A07BF0699897806994978EC
:204900006D46C1F38107002F42D0B9F1020F4FF0000302D1BAF1000F0BD19DF801209DF8B6
:20492000001001EB0221A0F844100DF10205A0F84210754EB0F84410B6F852208A4203D0FF
:204940004FF6FF728A4220D1032F11D06A78297801EB022189B24186B6F85020AD1C012035
:204960008A4211D04FF6FF728A4218BF181C0BE060692946323023F0E4FA606947363146CA
:20498000323022F02FFB08350346002B00F0A580B8F1010F07BF06988078069840788611B1
:2049A0001ED06069B9F1020F03D0017CC90903D309E05AEA070706D16A782978AD1C01EB43
:2049C0000221A0F84210032E05D069782A7802EB0122028504E060692946283023F0B1FA78
:2049E000608900F0070003280CD001281ED1DBF80010D431086890F88200B8B105E0C04602
:204A0000B4A0020058460168D431D1F874116069884758B90020069FE070B9786669787838
:204A2000C1F3011100F0780008433074B8F1010F56D1DBF80020B8321068007810B1B9F141
:204A4000020F4DDA08980078002849D06079002846D1D1692079E778DFF8B090DFF8B0805D
:204A600091F88310012912D0494600250223CD708A1C137017B143F010031370032190701A
:204A8000404680F85B10C2651CF060FA28E0D2F8702305460DF11501E92090479DF8156072
:204AA000052336B94946072201F10C000270082204E0494601F10C00037018224A7302218F
:204AC00000228170C27017B141F010018170A8F8EC30C8F8F8000571D6E71AF013FD04E0F1
:204AE00003F0A6FA01E022F0A1FC23F044FA216A0A68002313710968216223F0B5FB09B02E
:204B0000BDE8F08FE9730020C0580020D4620020485200202DE9F04F0646AF4FB578F96A7E
:204B20000024ADF14C0D2846312812DC312800F0D080DFF8A892DFF8A882142814D91C387D
:204B400000F03681401E00F0F380133800F0D68065E2323800F0A780401E61D0401E01287E
:204B600029D9801E17D05AE2DFE810F04A029702850235027E025902590208022201E200C3
:204B8000F101DC01740259026E02C20159025902AD019C015B0241B1C86830B1F01C23F0C2
:204BA0004FF8F96AC968884700E003208DF8380036210EAB46E261B3486A50B3304602A969
:204BC00021F020FD342D064618BF201C02D123F037F8B61C16F8018B90B902A822F029FE3A
:204BE00001280DD1BDF80C004146324620F092FEBDF80C00012803D1E22031461EF0FAFB14
:204C0000F86A476A02AB93E8030042463346B84700E003208DF839000DF13903294611E2F9
:204C2000002935D0C869002832D0304602A921F0E9FC054602A822F0FCFD284623F000F85B
:204C4000AD788146F82DA8BFF725A81C5FFA80F8404616F0AFFE061C18D0F86AB31C02AA0B
:204C6000C769009392E803002B464A46B847071C07D13470424661203321334675701EF08C
:204C80006DFE30461EF036FA1FB912E2102700E0032708A82146022218F0E8FB8DF82070AD
:204CA000332108AB01E269B1886A58B104A9304621F0A8FCF86A826A04AD95E803009047C7
:204CC000014600E0214602A822F090FA32210422E1E161B1886950B1304602A921F092FC01
:204CE000F86A826902AE96E80300904700E003208DF83A0031210DF13A03A3E189B10869E1
:204D000078B1304602A921F07DFC042121F007FF0246F86A056902AE96E803002346A847E2
:204D200000E003208DF83B0030210DF13B0389E1F61C8DF83C40304622F082FFA846092D79
:204D4000074609D0B01C22F07BFF0546301D22F077FFB61D814603E0B57896F80390361D97
:204D6000242F03D13088352706AE0690384620F04DFD05EB0901884214DB25B93846494638
:204D8000324620F0C7FD38464946324622F0E2FF30B9012F09D1E22031461EF02BFB02E0CD
:204DA0000A2000E002208DF83C000FAB454635E7F61C304622F044FFAB468046B8F1240F35
:204DC00057D0B8F1690F05D0B8F16B0F18BFB8F16A0F07D1022506E0F02F00208777002058
:204DE000ECA002002546BBF1080F08BF96F8029003D0B01C22F024FF8146404620F006FDDC
:204E000081452BDA5DBBA0EB090086B2F82EA8BFF726B01C5FFA80FA504616F0CBFD071C13
:204E20001AD0B81C2146324618F020FBBB1C40464946324622F0C2FC40B93C7052466120C0
:204E400059463B467E701EF089FD00E00A2538461EF050F91DB92CE1102500E002250AA8FB
:204E60002146022218F002FB8DF8285059460AAB1BE135202146042207AB22F09FFC38B923
:204E8000BDF81C20204602210425ADF8262002E00120214602258DF824008DF8251009ABDC
:204EA0000821ABE0F01C22F0CBFE242802D020F0ADFC00E020468DF82C00001213210BAB8D
:204EC0008DF82D00F1E0F01C22F0BAFE0546701D22F0B6FE0146242D03D0284622F0C6FF2B
:204EE00000E020468DF83F0012210DF13F03A9E0F078311D70B1401E0AD10878012805D01E
:204F000020B1522010A920F041FF08E0522002E0022002E0E0201EF06DFA8DF840000F219B
:204F200010AB8FE049460125087816F8031F8DF842500429A8BF022003DA38F811101BF0DC
:204F400085F88DF842000B210DF1420356E0F61C30780428A8BF02200ADA701C22F070FE09
:204F6000377849460246087838F8171022F0C8FF8DF843000A210DF1430363E0F01C22F063
:204F80005FFE8046701D22F05BFEF779F51C0146B8F1240F19D0B94205F1050510DD4046FB
:204FA000224622F0D1FE8DF844009DF8440009280ED16FB1404639462A4622F0CBFE07E09F
:204FC00040462A4622F0C0FE00E020468DF84400072111AB36E00125F61CE2208DF84550AE
:204FE00031461EF007FA30B928460821324622F0B1FE8DF8450003210DF145032A4655E099
:20500000F0782E4D30B1401E53D122F0F5FD01202860FEE722F0F0FD01202860FEE7022405
:2050200047E096F90300264F8DF83D003868D0F830240DF13D01E020904714210DF13E033D
:205040008DF83E00012231E08DF841400E210DF14103F7E722F0B5FE8DF830000C210CABA6
:2050600000128DF8310020E0E22002A920F08EFE042108220FE0134902A80A2222F0C2F8E3
:20508000FF208DF812008DF8130002218DF814000E228DF8150002AB08E0592006270121DF
:2050A0008DF834000DAB8DF83570022261201EF055FC204613B0BDE8F08FC0467C0520431A
:2050C00014010020A0A002002DE9F04FCF48D04CDFF840830F46390CADF1240D80F0658277
:2050E000790927D300230370D7494370184622F0D7FDD649012022F0D3FDD549062022F00F
:20510000CFFDD449072022F0CBFDD849082022F0C7FD0522D6498DF80C300DF10D0022F062
:2051200071F841208021062203AB1EF017FC87F0100044E2B80828BF87F0020080F03F820F
:205140002068390931D217F4706F08BF002000F03682380B04D3002022F054FA87F400678D
:20516000F80A04D3012022F04DFA87F48067B80A04D3022022F046FA87F40077780A04D322
:20518000032022F03FFA87F48077384617E22168884205D0016829601DF0ACFF286804E072
:2051A000016821601DF0A6FF206808BB606858B1C27EC17E521E491ED6B2C17626B960687B
:2051C0001DF098FF002060602668002E08BF00280BD04446207808214FF47A7222F090FEAB
:2051E00018B1207808211BF099F987F00800E6E1017B491E0173C9B20029C8D005460068FC
:20520000D3E70546D9F8046028781A280EDC1A2854D0401E00F06C81401E00F02B81801E4F
:2052200000F0B581801E00F01781BBE1243800F0A881AD3800F09E81801E03D02A3800F05A
:205240008B81AFE1A87C0930C0B2804616F0B2FB061C00F0A781A97800F8011B69880912EF
:2052600000F8011B99F80C1000F8011B99F80E1000F8011BB9F80E10091200F8011B99F807
:20528000101000F8011B99F8111000F8011B99F8141000F8011BB9F81410091200F8011B47
:2052A000AA7CA96921F0AEFF4520FF21424633461EF054FB30461DF01DFF73E1B5F824A0B1
:2052C000E97B0AF114001FFA80F822F09DFD002640B9A87B032805D0B8F1F00FD8BF4FF05E
:2052E000810B16DD08F10A004FF0820B1FFA80F8B8F1FA0F0DDD0AF1100016F05BFB061CAA
:2053000000F0508106F11000A8EB0A0470601FFA84F8404616F04EFB079020B9002E00F05C
:2053200041813046A0E00446A87804F8010B6888001204F8010B287904F8010BA888BBF1B4
:20534000820F4FEA202004F8010B1AD1A87B04F8010BA87B032805D0A8792070E8880012CF
:20536000607004E0A91D2046082221F04BFFE87B083404F8010B287C04F8010B288A0012B1
:2053800007E0A87904F8010BE888001204F8010BE87B04F8010B287D04F8010B687D04F87A
:2053A000010BA87D04F8010B687E04F8010BE969204621F01BFF241DBBF1820F04D0002071
:2053C00004F8010B504606E0002004F8010B04F801AB4FEA2A2004F8010B0E480078DEB191
:2053E0000B4909680A4B31604FF47A721E6008210F23337322F084FD20B106480078082101
:205400001BF08CF8E869B060706807E0DC5D0020EC6300208777002020465444A96A52464E
:2054200021F0F0FE95F82C0004F8010BA88D5FFA88F85946001204F8010B95F82E00079E85
:205440002070442032E7C04635F80100F74A0200B52F0200E14C0200A878401DC0B216F0BE
:20546000A9FA002800F09E80064623E7493E0200A0A0020029790B2000EB4100C0B221F0B6
:205480003AF8002800F08E80A9782E798DF80010EC788DF802608DF801400DF10301FEB195
:2054A000AA792C79EE880A70022C4FEA26218DF804100DF1050113DB2A7A2C792E890A7081
:2054C000032C4FEA26218DF806100DF1070107D1AA7A6E890A7031128DF808100DF1090127
:2054E0002A7BAE890A7032124A7021F01BF959E0002E57D070788DF81500B0788DF8160060
:205500003078FA2819DC9DF8150000F01E00162811DA2C499DF815000D4600F01F008200E8
:2055200050194068091D30B18958304688478DF8140028B9BEE6012000E004208DF8140051
:205540009DF8150020F01F0020287FF4B3AE60200021032205ABABE66878AE78EC788DF860
:20556000180006AB8DF8196003228DF81A404420802103E06B1C4520C02101221EF0EEF993
:2055800010E0F0783346401DC2B26920F0E7F078401DC4B2A11E701CC9B221F02FFFA4190C
:2055A00004F8010C484621F0BDF8074800781AF087FF5FEA00097FF424AE87F4004009B02C
:2055C000BDE8F08FDC5D0020877700202DE9F047DFF82C93064609F10400B578007800243A
:2055E000ADF1400D2946252927DC252900F09C81162911DC162900F0C0810A293FD9103975
:2056000000F0DD81491E00F0D081C91E00F0C481481E00F0BA8133E1B1F1200000F0A781F9
:20562000401E00F09E81401E00F09681401E00F08981401E00F0808122E1492911DC49291D
:2056400000F04181403900F05D81491E00F04D81C91E00F04681491E1ED0C91E00F03781AA
:205660000EE1B1F14A0000F02A81401E00F01381801E00F00C81933800F0048100E1DFE8CF
:2056800011F0A1004600E001CE01C001B2012700F601FF00A301F601304606A9C01C21F034
:2056A000CBFC8DF81E0048B99DF81800BDF818708DF81F0038128DF8200005E00DF11F0000
:2056C000FF21022217F0D2FE03220DF11E03CAE130468DF83440C61C304622F0B1FAB7780D
:2056E000C0F304213FB9052903D04FF6FF7181420BD1204607E0052903D04FF6FF718142BF
:2057000003D14FF0FF30DC4908600DABAAE1202016F050F9061C00F0AA81FF21202217F042
:20572000A5FE731C01202146082222F047F8751C071C18BF01272146042205AB842022F08E
:205740003DF8083560B99DF8170028709DF8160068709DF81500A8709DF81400E87001E053
:2057600047F0020783202146022207AB22F026F82D1D38B99DF81C002870BDF81C00001272
:20578000687001E047F00407ED1C6120214601226B1E22F013F808B147F0080721461022BC
:2057A00062202B4622F00AF808B147F01007012120223346672037701EF0D0F830461DF077
:2057C00099FC54E1264630F001008DF839600BD10DF1390019F0FCFF9DF8391080460E206B
:2057E00000EB4100C7B201E0A0460E27384616F0E1F85FEA000A3DD005462146082201204E
:2058000005F8016B2B4621F0D9FF22F0E9F90835072305F8010B001205F8010B974A05F868
:20582000013B1078494605F8010B0B7933F0010316D19DF8390028709DF839308BB1414653
:205840006D1C20469DF8392082420ADD0A782A7031F8022B401CC0B212126A70AD1CF1E7E1
:205860002E70672021463A4653461EF077F850461DF040FCB8F1000F00F0F98046469DE7F6
:205880000224F4E022464720E0211346EDE0304610F080FFEBE0F11C6846082221F0B2FCB4
:2058A0008DF80840CDF80CD002208DF8090002A817F0AAF80DF12E038DF82E00D2E030466D
:2058C0001EF06AF8D3E0304620F0B0FBCFE0F61C3078717820F07EF9307033460012707090
:2058E00038E0304614F0BEF9C1E0F01C22F0A8F9ADF80200684617F0F3FD01AB0822B2E04B
:20590000245D0020F11C01A8082221F07BFC684619F0F0FBBDF802000DF122038DF822005B
:2059200000128DF8230015E0F5208DF827400DF126038DF826000DE0F5200DF12F038DF82E
:205940002F003AE0F520FF278DF82A000DF12A038DF82B70022286E0F5200CAB8DF83000BE
:2059600080E0F5200DF131038DF831007AE0F5200DF132038DF8320074E0684621460922DD
:2059800017F074FD162109222BE068462146062217F06CFD152105E068462146062217F016
:2059A00065FD1421062268460CE0F0781EF04EF811210DF133038DF83300012254E03278B3
:2059C000F01C102103464FE022F052FC2C492D4F09684843B0FBF7F1684621F007FC092146
:2059E00004226B4640E062201FF010FFF61C01463246622022F0AEF90DF135038DF8350014
:205A000030E061201FF002FFF61C01463246612022F0A0F90DF136038DF8360022E0F01CE8
:205A2000042121F07CF8049084201FF0EFFE014604AA842022F08EF90DF137038DF8370062
:205A400010E0F01C22F0FCF8ADF81A0083201FF0DDFE01460DF11A02832022F07BF90EABB5
:205A60008DF838000122294667201DF077FF204610B0BDE8F087C046686300205C5C0020C2
:205A800090A1020040420F002DE9FC47D54C0F460546F80B80F000826078DFF84C83B90FED
:205AA00080F0A481B90880F09581F90A80F0FF80390B80F0CA80380907D2F80FC0F02282A5
:205AC00027F0804719F0B0FF1CE222F054FA814620F078FE002800F0B280082022F0D4F835
:205AE000002840F0AC80802022F0CEF8002840F0A680684614F0F0FD012803D100980028D0
:205B000000F09D8094F8F101002840F0988000250126E8B221F0DAFD48B1837A3BB18672E2
:205B200090F9090006FA00F0C0B21EF071FA6D1C032DEED30320207604F1D40022F015FADB
:205B4000484622F091FBD14800252A460168056050F8081CCE4940F8085C04F1540020F025
:205B600030FD40460068006B8047A168401A010B206AC1F1FF3282422CBF08444FF0FF3093
:205B8000206294F8240020B12069216AB1EBC02F25D920F027FE294600B13146081C1BD08A
:205BA000BC4840F6090101804580417B06F00F0221F00F010A434273017B05F00F0321F0E1
:205BC0000F0143EA010202732946416021F0FCFE418811F4406FFBD084F8246025621CF01A
:205BE00081FBCC4829460560022020F00DFB02201FF01EF9112012F0FDF9207818B9606865
:205C0000483022F0CEF9C448007810B90E2012F0F1F994F8250020B184F8255005201FF025
:205C200007F9BE48E0612576B4F9A800B4F9AA10884214BF0220072016F052FC02E048461C
:205C400022F012FB27F008073CE720B104201FF0EFF80020607065681EF0BEF938B1284618
:205C6000ED696FF4807100224FF00073A847E06858B140460068006B8047E2686168801A99
:205C8000C860000BC8600026E660A54904F15400002220F096FC0221D4F89400217618B15F
:205CA00004F5927022F085F927F400670AE722F062F9064620F086FDD4F88C10002889463B
:205CC00000F0828000297FD09649042504F154000022257620F075FC304622F0C5FA04F18F
:205CE000D40022F042F940460068006B8047E0604FF0010884F8018028461FF0B1F8D9F8E7
:205D000010006060D9F81000416AC90803D3036A29460022984740461AF0C8F9606880F812
:205D2000158060680EF098FC6568D5F808A040F60A02D01F564600F1010C00E01E46736848
:205D400033B119888A4203D0884218BF8C45F5D100217160727B08F00F0322F00F02134385
:205D60007373D9F80C201288904224D06046904221D02B8E03B3696305F13002518095F8B6
:205D80003C0001F00F0320F00F00034385F83C3095F83D0008F00F0320F00F00034385F8C0
:205DA0003D307260707B01F00F0520F00F0045EA0001717300E0E160504621F005FE51461F
:205DC000404620F021FA02E0304622F04DFA27F4806797E00DF034FDD4F8940008B927F082
:205DE00002078FE0C06400208C0100104E4A116841F08001116020B104201FF019F80020E1
:205E0000607022F0B8F88246D8F85400016804208847D0B1287DC0B1A068B0B18146D8F811
:205E200000002E69006B8047A0EB09002861000B2861B04202D280194008286140F6C411AD
:205E400081422CBFB0F5967F2961504622F00CFA1EF0C2F880B1EE6928466FF4807100226E
:205E60004FF00073B047D4F88C00002808BF47F0020701D019F0D8FD2846AD6900214FF05F
:205E800080630A46A84727F000573BE0141004403D0D02004876002022F06DF8D4F8A4607E
:205EA00066B306F1280106C90A234FF0E0450B40154008BF002B21D106F1280191E8000329
:205EC00006F1280595E8060006F1280322EA090221EA080183E8060022F0C6F9B16879B149
:205EE000B9F1000F08BFB8F1000F09D03069B6F93010B5684B464246A84701E022F0B4F944
:205F000027F4804727B104F59270394622F051F8BDE8FC87000004604EA00200615E0100B6
:205F2000C1520100A5670200CC2108402DE9F04F4FF000094F46ADF15C0D079708970997F4
:205F40000A970B974FF0FF080C9740460D900E900F90109711901290AA4C13974E461497EC
:205F600004F1300B1590D7E00C2016FB00B7E068710306AA042321F01FFF069807F116052E
:205F8000010EB1F1960A16D1C0F38541C0F3014040EA810002280ED19DF8180028709DF8CE
:205FA0001930FB75149A7A7615993976304619F009F9B8836FE0149903AA304620F072FBD5
:205FC00002AA3046012120F06DFB3046022101AA20F068FBDDF818C00CF0FF010CF0FF00AA
:205FE000FF2909D0FE2907D07E2905D07C2903D0782918BF702908D1139F37B9CCF385419D
:20600000032908BFBAF1000F1DD0304612F042FA002860703FD1E068710306AA042321F086
:20602000CBFE149903AA304620F03CFB02AA3046012120F037FB3046022101AA20F032FB79
:20604000069800F0FF0028709DF81900069F6870C7F30140E8709DF80E30AB702978FF29E6
:206060000BD0BDF80C00FE2907D04FF6FF71814204D1304619F0A6F800E01020E8809DF80F
:206080000A002871BDF808702F819DF806306B71BDF804206A812878FF2836D0FE282ED024
:2060A0007E2826D07C281ED0782817D0702810D0A52808D0242804D00C98401CC0B20C90E0
:2060C00028E0129600E011961098401CC0B2109020E00B98401CC0B20B901BE00A98401C6E
:2060E000C0B20A9016E009980E96401CC0B2099010E008980D96401CC0B208900AE00798D0
:20610000B046401CC0B2079004E009F101070F965FFA87F9761CF6B2E578B5423FF724AF29
:20612000109F002F3DD10C9F002F38D10798022835DA0B98022832DA089802282FDA4D457A
:206140002BD00B9FC7B9079FA7B90A9F0998074325D01FF0A3FD854219DCB9F1000F14D083
:2061600094F83200FE211EF0EBFDE5780120DDF83C8017E0012015E0079860B9B9F1000FBF
:2061800007D11FF08BFD854201DC06200AE0032008E00220EBE7022004E0149802E0042025
:2061A00000E005200028A07000F0E080401E68D0401E00F0C380401E26D0401E00F0B18058
:2061C000401E03D0401E00F0AB80E5E01198FF2804BF1298119084F8330094F833200C27B1
:2061E00084F831205019401E90FBF5F16943401A84F8320012FB07B0808BE0860BF004F8BA
:20620000B0E0C046845B00201FF048FD0C26054684F83C5015FB06B0817E84F83D10C07E44
:2062200084F83E000FF082FFE2782D1895FBF2F050432D1AE8B284F83200401C90FBF2F127
:206240005143401A84F831007C201DF08DFEFF2810D17E201DF088FEFF280BD115981DF079
:2062600083FEFF2806D178201DF07EFEFF2808BF94F8310084F8330010FB06B0808BE086F2
:2062800085E00E9F08F1010090FBF5F184F832806943FF2FA0EB0100C1B284F8311011D1DB
:2062A0000D98FF2804D10C200D9111FB00B004E00146880000EBC100584484F83310808BF2
:2062C000E08669E03A46D0B2910084F8330001EBC2015944898B1729E1865DD9C91F01AAFD
:2062E00089B213F03DFF9DF80F00C0083AD314980090BDF81220E18E94F833000323891A91
:20630000C91F01AA89B20CF04DFA002844D1BDF81010002940D09DF814001BF0C9FC3BE08D
:20632000FEE7149EB54221DD304612F0B3F86178E578761CF6B201436170F3E708F1010055
:2063400084F8328090FBF5F16943401A84F831005FFA88F012F09EF86070FE215FFA88F0C2
:206360001EF0EEFC149803F039FF15E014986D1E0C2284F83100014684F8325011FB02B143
:2063800084F83300898BE1867E211EF0D9FC94F83200FE211EF0D4FC17B0BDE8F08F7047F4
:2063A0002DE9F04FC24CC44AA0790E46F108ADF11C0D80F07281BF49330C07D3DFF8FCB236
:2063C0004FF6FF7A9146AAF1010A42E00F78710B27D2300A28BF86F0800080F0D581B008CF
:2063E0000BD2300B38BF0020C0F0CE81381C01D110F0EEFC86F40060C6E1012F18BF022FA6
:206400000CD168460021082217F030F8684613F08FFA18B1207802211AF080F886F00200BF
:20642000B2E1012F18BF022F10D1401E0AD0801E0CD1207A022809D10120207200201DF07F
:2064400019F803E0E17900201EF0E2FD86F480509AE120781AF034F8071C08BF86F40040AA
:2064600000F092813D78D32D00F00B81A079A84220D094F82F000A2D0BD08E480378002BAC
:2064800040F00781092D40F004810021B81C8847FFE03871B9788DF812100322F9788DF81A
:2064A00014000DF112038DF813104F2080211DF055FAEEE099F804006D1E00F09080AD1EE8
:2064C00040F0E780012818BF022840F0E280BD7875B36D1E40F0DD807D7820781DB321F086
:2064E0007FFB4FF6FE720021824218BF0121081C04D15846408F1146814209D010465D463D
:20650000ADF8100004A9A5F83AA053201CF072FF1EF026FE1EF032F85946002081F84A00C6
:2065200013F008FFB5E0022140F6B83221729DE07D78002D4FD121F001FC002201460BF1B4
:206540000800E1600D4602601046002D3FD10029E6D000280D46E3D080468D4820F00FF8EB
:20656000012809D0B9F82E004FF6FF71814209D02988884206D022E0854805F10C0120F0B6
:2065800031FDE0B1BBF83E002989884201D182450BD199F8040030F0010302D1EB7823B98F
:2065A0000DE0022801D12B794BB19BF836006979884207D199F80500A979884202D0284643
:2065C0001EF0F6FCAD69B8F10108C6D1A8E7AD69401CC0B2B9E700201DF064FB59E001285B
:2065E00018BF022855D17D7894F838003DB194F83710491CC9B2884284F837103EDBE0791B
:20660000401E04D0401E36D0401E1AD041E021F093F978B994F8390000283AD10021022072
:206620000D468DF808000246ADF80050684620F015FC13E0012021F051FB014601F030F89D
:2066400027E0AB2000216A461BF09AFACDF808D004208DF80C0002A80FF0B4FF20784FF46F
:20666000805119F0F3FC207841F288324FF4805121F046FC0DE01EF0B9F80AE0012000218D
:20668000DCE7F88948F20201814202D138460DF065F9384620F046F8DBE61779217878B12B
:2066A000401E6BD0C01E64D0801E58D06AE0C046585F0020285D0020245D0020005A002082
:2066C00094F82F00022F904601D181095AD2C1082CD2800856D3042594F83000A5714008B5
:2066E00050D394F832309BB9012F18BF022F17D10127A01D00212A46A77016F0B7FE0320AA
:20670000A07138461BF086F8384620F0D6FC05E020F0C0FB2846012100F0C2FF98F804700C
:2067200087BB2846002100F0BBFF2BE0A01D052594F8301005708908F3D394F8321000295D
:20674000EFD10121A1700422002116F08FFEA57100201BF05FF8022020F0AFFC12E00020E5
:2067600084F82E00A07132220846042121F0C8FB08E020F08FFB04200121D4E701200146D8
:206780001EF046FC86F0040007B0BDE8F08FC046745C00202DE9F04FD448D04CDFF8509317
:2067A000DFF85083ADF1140D0191090C80F0D3810199490838BF0020C0F0D78167680668BE
:2067C00021F056FD4FF47A754FF6FF727043B0FBF5F081B267B13B887888CB1A9BB2984210
:2067E00010DDC01A8242C8BF82B2FF68002FF2D14FF6FF70904200F090802078012121F0A9
:206800007FFB8AE0B87902287AD021F031FDD84B4643B6FBF5F097F8381038801878884285
:2068200066DD97F83600FF2808D197F83800401C87F8380097F8370087F8360097F83560D7
:2068400097F839200020012101E0401CC0B282420FDD97F8365001FA00F385F0FF052B42C6
:20686000F3D03618814097F83600F6B2014387F8361097F83400B98F10FB06F2891A89B2E4
:206880008842C7BFFF2087F83600011C97F8360099F82120FF2818BF97F83A0006D14046FC
:2068A0000078642510FB02F212FB05F0788046B9388D3E7A40F020003885386C87F82E60A4
:2068C0000BE03A8D4FF6DF70104038853D6C87F82E6097F8342012FB06507862F879CEB29E
:2068E00087F82D0007F110007E8406F087F910E0B87E97F82A10FA8BE9231DF0DDFB05E022
:20690000387CFF2802D0B8691FF00CFF38461EF06FF92078012119F001FE019880F00100CF
:2069200023E12878012840F0138195F8338095F813A06F6995F83100698802221EF014FD7C
